{
    "_format": "hh-sol-artifact-1",
    "contractName": "ChainHire",
    "sourceName": "contracts/ChainHire.sol",
    "abi": [
        {
            "inputs": [
                {
                    "internalType": "string",
                    "name": "company",
                    "type": "string"
                },
                {
                    "internalType": "string",
                    "name": "role",
                    "type": "string"
                },
                {
                    "internalType": "uint256",
                    "name": "start",
                    "type": "uint256"
                },
                {
                    "internalType": "uint256",
                    "name": "end",
                    "type": "uint256"
                }
            ],
            "name": "addWorkExperience",
            "outputs": [],
            "stateMutability": "nonpayable",
            "type": "function"
        },
        {
            "inputs": [
                {
                    "internalType": "address",
                    "name": "candidate",
                    "type": "address"
                }
            ],
            "name": "getWorkExperience",
            "outputs": [
                {
                    "components": [
                        {
                            "internalType": "string",
                            "name": "company",
                            "type": "string"
                        },
                        {
                            "internalType": "string",
                            "name": "role",
                            "type": "string"
                        },
                        {
                            "internalType": "uint256",
                            "name": "start",
                            "type": "uint256"
                        },
                        {
                            "internalType": "uint256",
                            "name": "end",
                            "type": "uint256"
                        }
                    ],
                    "internalType": "struct ChainHire.WorkExperience[]",
                    "name": "",
                    "type": "tuple[]"
                }
            ],
            "stateMutability": "view",
            "type": "function"
        },
        {
            "inputs": [
                {
                    "internalType": "address",
                    "name": "",
                    "type": "address"
                },
                {
                    "internalType": "uint256",
                    "name": "",
                    "type": "uint256"
                }
            ],
            "name": "workExperiences",
            "outputs": [
                {
                    "internalType": "string",
                    "name": "company",
                    "type": "string"
                },
                {
                    "internalType": "string",
                    "name": "role",
                    "type": "string"
                },
                {
                    "internalType": "uint256",
                    "name": "start",
                    "type": "uint256"
                },
                {
                    "internalType": "uint256",
                    "name": "end",
                    "type": "uint256"
                }
            ],
            "stateMutability": "view",
            "type": "function"
        }
    ],
    "bytecode": "0x608060405234801561001057600080fd5b50610d5d806100206000396000f3fe608060405234801561001057600080fd5b50600436106100415760003560e01c806309ea120b1461004657806338e168e8146100795780638da3f77d146100a9575b600080fd5b610060600480360381019061005b919061056f565b6100c5565b604051610070949392919061064e565b60405180910390f35b610093600480360381019061008e91906106a1565b610222565b6040516100a09190610853565b60405180910390f35b6100c360048036038101906100be91906109aa565b6103f7565b005b600060205281600052604060002081815481106100e157600080fd5b90600052602060002090600402016000915091505080600001805461010590610a78565b80601f016020809104026020016040519081016040528092919081815260200182805461013190610a78565b801561017e5780601f106101535761010080835404028352916020019161017e565b820191906000526020600020905b81548152906001019060200180831161016157829003601f168201915b50505050509080600101805461019390610a78565b80601f01602080910402602001604051908101604052809291908181526020018280546101bf90610a78565b801561020c5780601f106101e15761010080835404028352916020019161020c565b820191906000526020600020905b8154815290600101906020018083116101ef57829003601f168201915b5050505050908060020154908060030154905084565b60606000808373ffffffffffffffffffffffffffffffffffffffff1673ffffffffffffffffffffffffffffffffffffffff168152602001908152602001600020805480602002602001604051908101604052809291908181526020016000905b828210156103ec57838290600052602060002090600402016040518060800160405290816000820180546102b590610a78565b80601f01602080910402602001604051908101604052809291908181526020018280546102e190610a78565b801561032e5780601f106103035761010080835404028352916020019161032e565b820191906000526020600020905b81548152906001019060200180831161031157829003601f168201915b5050505050815260200160018201805461034790610a78565b80601f016020809104026020016040519081016040528092919081815260200182805461037390610a78565b80156103c05780601f10610395576101008083540402835291602001916103c0565b820191906000526020600020905b8154815290600101906020018083116103a357829003601f168201915b505050505081526020016002820154815260200160038201548152505081526020019060010190610282565b505050509050919050565b6000803373ffffffffffffffffffffffffffffffffffffffff1673ffffffffffffffffffffffffffffffffffffffff168152602001908152602001600020604051806080016040528086815260200185815260200184815260200183815250908060018154018082558091505060019003906000526020600020906004020160009091909190915060008201518160000190816104949190610c55565b5060208201518160010190816104aa9190610c55565b506040820151816002015560608201518160030155505050505050565b6000604051905090565b600080fd5b600080fd5b600073ffffffffffffffffffffffffffffffffffffffff82169050919050565b6000610506826104db565b9050919050565b610516816104fb565b811461052157600080fd5b50565b6000813590506105338161050d565b92915050565b6000819050919050565b61054c81610539565b811461055757600080fd5b50565b60008135905061056981610543565b92915050565b60008060408385031215610586576105856104d1565b5b600061059485828601610524565b92505060206105a58582860161055a565b9150509250929050565b600081519050919050565b600082825260208201905092915050565b60005b838110156105e95780820151818401526020810190506105ce565b60008484015250505050565b6000601f19601f8301169050919050565b6000610611826105af565b61061b81856105ba565b935061062b8185602086016105cb565b610634816105f5565b840191505092915050565b61064881610539565b82525050565b600060808201905081810360008301526106688187610606565b9050818103602083015261067c8186610606565b905061068b604083018561063f565b610698606083018461063f565b95945050505050565b6000602082840312156106b7576106b66104d1565b5b60006106c584828501610524565b91505092915050565b600081519050919050565b600082825260208201905092915050565b6000819050602082019050919050565b600082825260208201905092915050565b6000610716826105af565b61072081856106fa565b93506107308185602086016105cb565b610739816105f5565b840191505092915050565b61074d81610539565b82525050565b60006080830160008301518482036000860152610770828261070b565b9150506020830151848203602086015261078a828261070b565b915050604083015161079f6040860182610744565b5060608301516107b26060860182610744565b508091505092915050565b60006107c98383610753565b905092915050565b6000602082019050919050565b60006107e9826106ce565b6107f381856106d9565b935083602082028501610805856106ea565b8060005b85811015610841578484038952815161082285826107bd565b945061082d836107d1565b925060208a01995050600181019050610809565b50829750879550505050505092915050565b6000602082019050818103600083015261086d81846107de565b905092915050565b600080fd5b600080fd5b7f4e487b7100000000000000000000000000000000000000000000000000000000600052604160045260246000fd5b6108b7826105f5565b810181811067ffffffffffffffff821117156108d6576108d561087f565b5b80604052505050565b60006108e96104c7565b90506108f582826108ae565b919050565b600067ffffffffffffffff8211156109155761091461087f565b5b61091e826105f5565b9050602081019050919050565b82818337600083830152505050565b600061094d610948846108fa565b6108df565b9050828152602081018484840111156109695761096861087a565b5b61097484828561092b565b509392505050565b600082601f83011261099157610990610875565b5b81356109a184826020860161093a565b91505092915050565b600080600080608085870312156109c4576109c36104d1565b5b600085013567ffffffffffffffff8111156109e2576109e16104d6565b5b6109ee8782880161097c565b945050602085013567ffffffffffffffff811115610a0f57610a0e6104d6565b5b610a1b8782880161097c565b9350506040610a2c8782880161055a565b9250506060610a3d8782880161055a565b91505092959194509250565b7f4e487b7100000000000000000000000000000000000000000000000000000000600052602260045260246000fd5b60006002820490506001821680610a9057607f821691505b602082108103610aa357610aa2610a49565b5b50919050565b60008190508160005260206000209050919050565b60006020601f8301049050919050565b600082821b905092915050565b600060088302610b0b7fffffffffffffffffffffffffffffffffffffffffffffffffffffffffffffffff82610ace565b610b158683610ace565b95508019841693508086168417925050509392505050565b6000819050919050565b6000610b52610b4d610b4884610539565b610b2d565b610539565b9050919050565b6000819050919050565b610b6c83610b37565b610b80610b7882610b59565b848454610adb565b825550505050565b600090565b610b95610b88565b610ba0818484610b63565b505050565b5b81811015610bc457610bb9600082610b8d565b600181019050610ba6565b5050565b601f821115610c0957610bda81610aa9565b610be384610abe565b81016020851015610bf2578190505b610c06610bfe85610abe565b830182610ba5565b50505b505050565b600082821c905092915050565b6000610c2c60001984600802610c0e565b1980831691505092915050565b6000610c458383610c1b565b9150826002028217905092915050565b610c5e826105af565b67ffffffffffffffff811115610c7757610c7661087f565b5b610c818254610a78565b610c8c828285610bc8565b600060209050601f831160018114610cbf5760008415610cad578287015190505b610cb78582610c39565b865550610d1f565b601f198416610ccd86610aa9565b60005b82811015610cf557848901518255600182019150602085019450602081019050610cd0565b86831015610d125784890151610d0e601f891682610c1b565b8355505b6001600288020188555050505b50505050505056fea2646970667358221220462ba1277a11059ace2201aa30393efe669034b45156d02ee523ffadea17398b64736f6c63430008120033",
    "linkReferences": {},
    "deployedLinkReferences": {}
}